:020000040800F2
:100000000028002031140008490F00084F0F000895
:10001000550F00085B0F0008610F0008000000008A
:10002000000000000000000000000000670F000852
:10003000730F0008000000007F0F00088B0F0008FE
:10004000791400087914000879140008791400085C
:10005000791400087914000879140008791400084C
:10006000791400087914000879140008791400083C
:10007000791400087914000879140008791400082C
:10008000791400087914000879140008791400081C
:10009000791400087914000879140008791400080C
:1000A00079140008791400087914000879140008FC
:1000B000990F000879140008000000007914000866
:1000C0007914000800000000000000007914000806
:1000D00000000000791400087914000800000000F6
:1000E0007914000879140008791400080000000051
:1000F0000000000000000000000000000000000000
:0C01000000000000000000005FF808F1A3
:10010C0010B5054C237833B9044B13B10448AFF345
:10011C0000800123237010BD60000020000000004F
:10012C00C02A000808B5034B1BB103490348AFF3C1
:10013C00008008BD0000000064000020C02A0008F8
:10014C0080B483B000AF78607B68032B01DD0023A3
:10015C000DE0094A7B6852F82330002B06D0064A82
:10016C007B68002142F82310012300E0002318468D
:10017C000C37BD4680BC70477C00002080B582B037
:10018C0000AF00237B605DE0324A7B6852F823208D
:10019C0031497B6841F82320304A7B6852F8232090
:1001AC002C497B6841F823207B68022B1FD07B688D
:1001BC00022B27DC7B68002B03D07B68012B0BD038
:1001CC0020E00121264801F03DFC03461946234A54
:1001DC007B6842F8231016E00221214801F032FC22
:1001EC00034619461D4A7B6842F823100BE0042194
:1001FC001B4801F027FC03461946184A7B6842F855
:10020C00231000E000BF144A7B6852F823201149E8
:10021C007B6851F823309A4211D10E4A7B6852F810
:10022C0023200E497B6851F823309A4207D10B4AA0
:10023C007B6852F823200B497B6841F823207B68AC
:10024C0001337B607B68022B9EDD00BF00BF08374B
:10025C00BD4680BD180000200C00002024000020AA
:10026C00000C01403000002080B582B000AF0023AC
:10027C007B6057E02F4A7B6852F82330162B3BD01B
:10028C00162B45DC142B02D0152B16D040E02A4A35
:10029C007B6852F82330002B3CD1284A7B68012123
:1002AC0042F8231040F6B831786800F039FD214A45
:1002BC007B68152142F823102CE0786800F08AFD49
:1002CC000346002B09D01E4A7B68012142F82310FB
:1002DC00184A7B68162142F82310174A7B6852F89B
:1002EC002330012B18D1786800F048FD114A7B6847
:1002FC00142142F823100FE00F4A7B6852F8233088
:10030C00012B0BD10B4A7B68142142F8231005E01A
:10031C0000BF04E000BF02E000BF00E000BF7B684C
:10032C0001337B607B68022BA4DD00BF00BF083764
:10033C00BD4680BD00000020300000207C00002065
:10034C008800002080B582B000AF78607B68032BFA
:10035C005ED801A252F823F0750300089F03000831
:10036C00C9030008F303000800220821354801F0F6
:10037C0080FB01221021334801F07BFB012220215C
:10038C00304801F076FB012240212E4801F071FB30
:10039C0053E0012208212B4801F06BFB00221021B5
:1003AC00284801F066FB01222021264801F061FB60
:1003BC0001224021234801F05CFB3EE00122082190
:1003CC00204801F056FB012210211E4801F051FB80
:1003DC00002220211B4801F04CFB0122402119482E
:1003EC0001F047FB29E001220821164801F041FBEE
:1003FC0001221021134801F03CFB0122202111485D
:10040C0001F037FB002240210E4801F032FB14E0D2
:10041C00012208210B4801F02CFB01221021094874
:10042C0001F027FB01222021064801F022FB0122CA
:10043C004021044801F01DFB00BF00BF0837BD463A
:10044C0080BD00BF000C014080B582B000AF786069
:10045C007B68092B00F2B28101A252F823F000BF95
:10046C0095040008E7040008390500088B0500080E
:10047C00DD0500082F06000881060008D3060008D9
:10048C00250700087707000800224021CE4801F01C
:10049C00F0FA00228021CC4801F0EBFA00224FF454
:1004AC008071C94801F0E5FA00224FF40071C6488A
:1004BC0001F0DFFA00224FF48061C34801F0D9FA51
:1004CC0000224FF40061C04801F0D3FA01224FF42E
:1004DC008051BD4801F0CDFA71E101224021BA48AA
:1004EC0001F0C7FA00228021B74801F0C2FA0022BD
:1004FC004FF48071B44801F0BCFA01224FF4007142
:10050C00B14801F0B6FA01224FF48061AE4801F017
:10051C00B0FA01224FF40061AB4801F0AAFA0122B3
:10052C004FF48051A84801F0A4FA48E10022402180
:10053C00A54801F09EFA00228021A34801F099FA07
:10054C0001224FF48071A04801F093FA00224FF47D
:10055C0000719D4801F08DFA00224FF480619A4899
:10056C0001F087FA01224FF40061974801F081FAFB
:10057C0000224FF48051944801F07BFA1FE10022D5
:10058C004021914801F075FA002280218E4801F03B
:10059C0070FA00224FF480718B4801F06AFA002245
:1005AC004FF40071884801F064FA01224FF4806125
:1005BC00854801F05EFA01224FF40061824801F097
:1005CC0058FA00224FF480517F4801F052FAF6E0BD
:1005DC00012240217C4801F04CFA002280217A480B
:1005EC0001F047FA00224FF48071774801F041FA8C
:1005FC0001224FF40071744801F03BFA01224FF4D0
:10060C008061714801F035FA00224FF400616E48A8
:10061C0001F02FFA00224FF480516B4801F029FAB7
:10062C00CDE000224021684801F023FA012280210C
:10063C00654801F01EFA00224FF48071624801F007
:10064C0018FA00224FF400715F4801F012FA0122EF
:10065C004FF480615C4801F00CFA00224FF4006109
:10066C00594801F006FA00224FF48051564801F027
:10067C0000FAA4E000224021534801F0FAF90122CB
:10068C008021514801F0F5F900224FF480714E4859
:10069C0001F0EFF900224FF400714B4801F0E9F939
:1006AC0000224FF48061484801F0E3F900224FF436
:1006BC000061454801F0DDF900224FF480514248B9
:1006CC0001F0D7F97BE0002240213F4801F0D1F93D
:1006DC00002280213C4801F0CCF900224FF48071BB
:1006EC00394801F0C6F901224FF40071364801F087
:1006FC00C0F901224FF48061334801F0BAF90122AC
:10070C004FF40061304801F0B4F901224FF48051EC
:10071C002D4801F0AEF952E0002240212A4801F0A8
:10072C00A8F900228021284801F0A3F900224FF4F7
:10073C008071254801F09DF900224FF40071224888
:10074C0001F097F900224FF480611F4801F091F9F4
:10075C0000224FF400611C4801F08BF900224FF489
:10076C008051194801F085F929E0002240211648F2
:10077C0001F07FF900228021134801F07AF9002260
:10078C004FF48071104801F074F900224FF400719D
:10079C000D4801F06EF901224FF480610A4801F016
:1007AC0068F900224FF40061074801F062F9002259
:1007BC004FF48051044801F05CF900E000BF00BF29
:1007CC000837BD4680BD00BF0008014080B483B02F
:1007DC0000AF78607B68104A82FB03121213DB17A0
:1007EC00D31A0E4A13607B680D4A82FB03129211D6
:1007FC00DB17D11A0B4B83FB01239A10CB17D21AA0
:10080C0013469B0013445B00CA1A044B5A6000BF8A
:10081C000C37BD4680BC7047AD8BDB689800002060
:10082C00D34D62106766666680B483B000AF7860A3
:10083C007B68104A82FB03121213DB17D31A0E4A81
:10084C0093607B680D4A82FB03129211DB17D11A5D
:10085C000B4B83FB01239A10CB17D21A13469B0028
:10086C0013445B00CA1A044BDA6000BF0C37BD4658
:10087C0080BC7047AD8BDB6898000020D34D6210B4
:10088C006766666680B500AF104B1B681846FFF7AD
:10089C0059FD0E4B1B680E4A52F823301846FFF7D1
:1008AC00D3FD0C4B1B68012B0ED1084B1B6801337D
:1008BC005A4203F0030302F0030258BF5342034AA7
:1008CC001360192000F046FA00BF80BDA80000207C
:1008DC00980000200001002080B500AF1E4B1B6863
:1008EC000C2B26D00C2B34DC0A2B02D00B2B10D06B
:1008FC002FE000220121194801F0BBF8012202214E
:10090C00164801F0B6F801220421144801F0B1F8A0
:10091C0020E001220121114801F0ABF80022022154
:10092C000E4801F0A6F8012204210C4801F0A1F8B0
:10093C0010E001220121094801F09BF8012202215B
:10094C00064801F096F800220421044801F091F8C1
:10095C0000E000BF00BF80BD3C000020000801404B
:10096C0080B500AF1E4B1B680C2B26D00C2B34DC37
:10097C000A2B02D00B2B10D02FE000220821194893
:10098C0001F077F801221021164801F072F80122CB
:10099C002021144801F06DF820E0012208211148B3
:1009AC0001F067F8002210210E4801F062F80122D4
:1009BC0020210C4801F05DF810E0012208210948C3
:1009CC0001F057F801221021064801F052F80022DC
:1009DC002021044801F04DF800E000BF00BF80BDAD
:1009EC00400000200008014080B500AF1D4B1B6883
:1009FC000C2B24D00C2B31DC0A2B02D00B2B0FD060
:100A0C002CE00121184801F04CF801220221164873
:100A1C0001F02FF801220421134801F02AF81EE0FE
:100A2C0001220421104801F024F802210E4801F0A3
:100A3C0038F8012201210C4801F01BF80FE00122CB
:100A4C000221094801F015F801220121064801F0A4
:100A5C0010F80421044801F024F800E000BF00BFA6
:100A6C0080BD00BF3C0000200008014080B500AFF5
:100A7C001D4B1B680C2B24D00C2B31DC0A2B02D009
:100A8C000B2B0FD02CE00821184801F00AF801229A
:100A9C001021164800F0EDFF01222021134800F030
:100AAC00E8FF1EE001222021104800F0E2FF102197
:100ABC000E4800F0F6FF012208210C4800F0D9FF87
:100ACC000FE001221021094800F0D3FF0122082178
:100ADC00064800F0CEFF2021044800F0E2FF00E0C1
:100AEC0000BF00BF80BD00BF4000002000080140D7
:100AFC0080B500AF00F0BCFC00F018F800F09EF8D8
:100B0C0000F050F8084801F011FC6421032000F0BB
:100B1C0007F9032000F01EF9FFF7A6FBFFF7B2FE62
:100B2C0000F0ECFAF8E700BF0401002080B590B0AB
:100B3C0000AF07F1180328220021184601F0B2FF7C
:100B4C003B1D00221A605A609A60DA601A61022317
:100B5C00BB610123BB621023FB6200237B6307F1A3
:100B6C001803184600F0B6FF0346002B01D000F026
:100B7C00D1F80F237B600023BB600023FB600023B4
:100B8C003B6100237B613B1D0021184601F022FADA
:100B9C000346002B01D000F0BDF800BF4037BD4626
:100BAC0080BD000080B586B000AF07F108030022BD
:100BBC001A605A609A60DA603B4600221A605A60EA
:100BCC001D4B4FF080421A601B4B41F63F725A602E
:100BDC00194B00229A60184B0922DA60164B00223E
:100BEC001A61154B00229A61134801F04FFB034622
:100BFC00002B01D000F08EF84FF48053BB6007F14E
:100C0C00080319460C4801F0E5FC0346002B01D003
:100C1C0000F080F800233B6000237B603B461946C4
:100C2C00054801F0B1FE0346002B01D000F072F82C
:100C3C0000BF1837BD4680BD0401002080B586B0CA
:100C4C0000AF07F1080300221A605A609A60DA605C
:100C5C00274B9B69264A43F004039361244B9B6901
:100C6C0003F004037B607B68214B9B69204A43F0B3
:100C7C00080393611E4B9B6903F008033B603B68C0
:100C8C00002241F6FF711B4800F0F3FE0022782190
:100C9C00194800F0EEFE41F6FF73BB600123FB60C8
:100CAC0000233B6102237B6107F1080319461148BD
:100CBC0000F04EFD0723BB600023FB6001233B616A
:100CCC0007F1080319460C4800F042FD7823BB607D
:100CDC000123FB6000233B6102237B6107F10803C6
:100CEC001946054800F034FD00BF1837BD4680BDDD
:100CFC000010024000080140000C014080B582B099
:100D0C0000AF786000F080F8FFF738FA00BF0837C2
:100D1C00BD4680BD80B400AF72B600BFFEE70000D8
:100D2C0080B483B000AF786039603B68074A82FBBF
:100D3C0003129210DB17D21A05497B6841F8232065
:100D4C0000BF0C37BD4680BC704700BF6766666647
:100D5C00AC00002080B483B000AF7860054A7B689B
:100D6C001360054B00221A6000BF0C37BD4680BCD7
:100D7C00704700BFFC0000200001002080B483B04D
:100D8C0000AF7860074A7B68002142F82310064ABE
:100D9C007B68002142F8231000BF0C37BD4680BC95
:100DAC00704700BFAC000020D400002080B483B09A
:100DBC0000AF7860064A7B6852F8232013469B00EC
:100DCC0013445B0018460C37BD4680BC704700BF0F
:100DDC00AC00002080B483B000AF7860094A7B6817
:100DEC0052F82330002B06D0064A7B68002142F8CB
:100DFC002310012300E0002318460C37BD4680BCAD
:100E0C00704700BFD400002080B483B000AF002333
:100E1C007B601CE01A4A7B6852F82330002B13DDF0
:100E2C00174A7B6852F823305A1E15497B6841F8E3
:100E3C002320134A7B6852F82330002B04DC114A20
:100E4C007B68012142F823107B6801337B607B684F
:100E5C00092BDFDD0C4B1B68002B0BDD0A4B1B68D1
:100E6C00013B094A1360084B1B68002B02DC074B43
:100E7C0001221A6000BF0C37BD4680BC704700BF12
:100E8C00AC000020D4000020FC0000200001002059
:100E9C0080B485B000AF154B9B69144A43F0010335
:100EAC009361124B9B6903F00103BB60BB680F4B52
:100EBC00DB690E4A43F08053D3610C4BDB6903F0C2
:100ECC0080537B607B680A4B5B68FB60FB6823F09C
:100EDC00E063FB60FB6843F08063FB60044AFB68E3
:100EEC00536000BF1437BD4680BC704700100240F1
:100EFC000000014080B584B000AF78607B681B684F
:100F0C00B3F1804F13D10C4BDB690B4A43F0010357
:100F1C00D361094BDB6903F00103FB60FB68002222
:100F2C0000211C2000F0DDFB1C2000F0F6FB00BFB4
:100F3C001037BD4680BD00BF0010024080B400AF2A
:100F4C00FEE780B400AFFEE780B400AFFEE780B4EC
:100F5C0000AFFEE780B400AFFEE780B400AF00BF87
:100F6C00BD4680BC704780B400AF00BFBD4680BC9E
:100F7C00704780B400AF00BFBD4680BC704780B5E1
:100F8C0000AF00F0BBFA00BF80BD000080B500AF21
:100F9C00024801F017FA00BF80BD00BF0401002019
:100FAC0080B400AF00BFBD4680BC704780B500AFB9
:100FBC00244B1B680C2B2AD00C2B3ADC0A2B02D0AE
:100FCC000B2B12D035E0FFF787FC0420FFF702FF54
:100FDC000346002B2FD01B4B0C221A601A4B1B689C
:100FEC0019460420FFF79CFE25E0FFF775FC042052
:100FFC00FFF7F0FE0346002B1FD0124B0A221A609B
:10100C00124B1B6819460420FFF78AFE15E0FFF708
:10101C0063FC0420FFF7DEFE0346002B0FD0094BC8
:10102C000B221A600A4B1B6819460420FFF778FE46
:10103C0005E000BF04E000BF02E000BF00E000BF1D
:10104C0000BF80BD3C0000204C000020440000206C
:10105C004800002080B500AF244B1B680C2B2AD015
:10106C000C2B3ADC0A2B02D00B2B12D035E0FFF7FD
:10107C0077FC0520FFF7AEFE0346002B2FD01B4B51
:10108C000C221A601A4B1B6819460520FFF748FE04
:10109C0025E0FFF765FC0520FFF79CFE0346002BBF
:1010AC001FD0124B0A221A60124B1B6819460520DE
:1010BC00FFF736FE15E0FFF753FC0520FFF78AFE1D
:1010CC000346002B0FD0094B0B221A600A4B1B68EE
:1010DC0019460520FFF724FE05E000BF04E000BF21
:1010EC0002E000BF00E000BF00BF80BD4000002058
:1010FC004C000020440000204800002080B500AFC8
:10110C00BF4B1B68042B00F26F8101A252F823F035
:10111C003111000867110008D3110008891200086A
:10112C003D130008B74B0A221A60B74B0C221A6009
:10113C004FF4FA710320FFF7F3FDB44B1B6819460B
:10114C000420FFF7EDFDB24B1B6819460520FFF795
:10115C00E7FDAB4B01221A604FE1FFF727FFFFF7CA
:10116C0079FF0420FFF722FE03461846FFF72EFBFB
:10117C000520FFF71BFE03461846FFF755FB002022
:10118C00FEF7DEFF0346002B00F030810420FFF752
:10119C00F5FD0520FFF7F2FD9A4B0A221A609A4BD7
:1011AC000A221A604FF4FA710620FFF7B9FDFFF717
:1011BC0093FBFFF7D5FB954B1B68964A1360904B3E
:1011CC0002221A6012E18E4B1B684FF47A7202FBFA
:1011DC0003F31846FFF7FAFA8E4B1B681846FFF715
:1011EC0023FB0620FFF7F6FD0346002B08D0FFF784
:1011FC00FBFBFFF73BFC4FF4FA710620FFF790FD69
:10120C000120FEF79DFF0346002B0FD0814B1B687E
:10121C0003F57A72804B83FB02135913D317CB1A45
:10122C007E4901FB03F3D31A7A4A13600220FEF7BE
:10123C0087FF0346002B03D0764B1B68734A136061
:10124C000020FEF77DFF0346002B00F0D1806D4B94
:10125C000B221A606C4B0B221A604FF4FA710620A9
:10126C00FFF75EFDFFF738FBFFF77AFB6C4B1B6853
:10127C00684A1360624B03221A60B9E0604B1B682A
:10128C004FF47A7202FB03F31846FFF79FFA614B97
:10129C001B681846FFF7C8FA0620FFF79BFD0346AC
:1012AC00002B08D0FFF7A0FBFFF7E0FB4FF4FA711F
:1012BC000620FFF735FD0120FEF742FF0346002B09
:1012CC000FD0544B1B6803F57A72534B83FB0213FC
:1012DC005913D317CB1A514901FB03F3D31A4D4AB7
:1012EC0013600220FEF72CFF0346002B03D0494B62
:1012FC001B684B4A13600020FEF722FF0346002BAD
:10130C0078D0404B0C221A603F4B0C221A604FF4E1
:10131C00FA710620FFF704FDFFF7DEFAFFF720FB5A
:10132C003B4B1B683B4A1360354B04221A6061E04F
:10133C00334B1B684FF47A7202FB03F31846FFF72A
:10134C0045FA344B1B681846FFF76EFA0620FFF778
:10135C0041FD0346002B08D0FFF746FBFFF786FB49
:10136C004FF4FA710620FFF7DBFC0120FEF7E8FED4
:10137C000346002B0FD0274B1B6803F57A72264BC4
:10138C0083FB02135913D317CB1A244901FB03F324
:10139C00D31A204A13600220FEF7D2FE0346002B1C
:1013AC0003D01C4B1B681A4A13600020FEF7C8FEC2
:1013BC000346002B20D00620FFF7E0FC114B0A223D
:1013CC001A60114B0C221A60104B1B681946042032
:1013DC00FFF7A6FC0E4B1B6819460520FFF7A0FC77
:1013EC00074B01221A6007E000BF06E000BF04E0D3
:1013FC0000BF02E000BF00E000BF00BF80BD00BF27
:10140C00940000203C0000204000002044000020FC
:10141C004C0000205000002089B5F814A086010073
:10142C0048000020FFF7BCFD0B480C490C4A002378
:10143C0002E0D458C4500433C4188C42F9D3094A7E
:10144C00094C002301E013600432A242FBD301F0EB
:10145C0005FBFFF74DFB70470000002060000020EB
:10146C00042B00086000002050010020FEE7000063
:10147C0080B500AF084B1B68074A43F0100313609C
:10148C00032000F023F90F2000F008F8FFF700FD0F
:10149C000023184680BD00BF0020024080B582B0FA
:1014AC0000AF7860124B1A68124B1B7819464FF438
:1014BC007A73B3FBF1F3B2FBF3F3184600F03BF98C
:1014CC000346002B01D001230EE07B680F2B0AD8BA
:1014DC00002279684FF0FF3000F003F9064A7B6870
:1014EC001360002300E0012318460837BD4680BD79
:1014FC00540000205C0000205800002080B400AF95
:10150C00054B1B781A46054B1B681344034A1360A2
:10151C0000BFBD4680BC70475C0000204C01002021
:10152C0080B400AF024B1B681846BD4680BC7047A8
:10153C004C01002080B485B000AF78607B6803F06C
:10154C000703FB600C4BDB68BB60BA684FF6FF030C
:10155C001340BB60FB681A02BB68134343F0BF63C4
:10156C0043F40033BB60044ABB68D36000BF14373C
:10157C00BD4680BC704700BF00ED00E080B400AFFA
:10158C00044BDB681B0A03F007031846BD4680BCFE
:10159C00704700BF00ED00E080B483B000AF03469D
:1015AC00FB7197F90730002B0BDBFB7903F01F0263
:1015BC00064997F907305B09012000FA02F241F85D
:1015CC00232000BF0C37BD4680BC704700E100E013
:1015DC0080B483B000AF03463960FB7197F90730D4
:1015EC00002B0ADB3B68DAB20C4997F90730120181
:1015FC00D2B20B4483F800230AE03B68DAB2084904
:10160C00FB7903F00F03043B1201D2B20B441A76A0
:10161C0000BF0C37BD4680BC704700BF00E100E046
:10162C0000ED00E080B489B000AFF860B9607A607A
:10163C00FB6803F00703FB61FB69C3F10703042B91
:10164C0028BF0423BB61FB690433062B02D9FB6959
:10165C00033B00E000237B614FF0FF32BB6902FAD1
:10166C0003F3DA43BB681A407B699A404FF0FF31B1
:10167C007B6901FA03F3D9437B680B40134318468B
:10168C002437BD4680BC704780B582B000AF78600F
:10169C007B68013BB3F1807F01D301230FE00A4A41
:1016AC007B68013B53600F214FF0FF30FFF790FF39
:1016BC00054B00229A60044B07221A60002318463F
:1016CC000837BD4680BD00BF10E000E080B582B099
:1016DC0000AF78607868FFF72DFF00BF0837BD4674
:1016EC0080BD80B586B000AF0346B9607A60FB73ED
:1016FC0000237B61FFF742FF78617A68B9687869EB
:10170C00FFF790FF024697F90F3011461846FFF786
:10171C005FFF00BF1837BD4680BD80B582B000AFFB
:10172C000346FB7197F907301846FFF735FF00BFEA
:10173C000837BD4680BD80B582B000AF7860786850
:10174C00FFF7A2FF034618460837BD4680BD0000D0
:10175C0080B48BB000AF7860396000237B620023CB
:10176C003B6248E101227B6A02FA03F3FB613B68AE
:10177C001B68FA691340BB61BA69FB699A4240F075
:10178C0037813B685B68A34A93425ED0A14A93427F
:10179C0075D8A14A934258D09F4A93426FD89F4A1A
:1017AC00934252D09D4A934269D89D4A93424CD061
:1017BC009B4A934263D89B4A934246D0994A9342A0
:1017CC005DD8122B2AD8122B59D801A252F823F02B
:1017DC00571800083118000843180008851800082D
:1017EC008B1800088B1800088B1800088B18000841
:1017FC008B1800088B1800088B1800088B18000831
:10180C008B1800088B1800088B1800088B18000820
:10181C008B180008391800084D180008824A9342AA
:10182C0013D02CE03B68DB683B6229E03B68DB684B
:10183C0004333B6224E03B68DB6808333B621FE007
:10184C003B68DB680C333B621AE03B689B68002BFF
:10185C0002D104233B6213E03B689B68012B05D14A
:10186C0008233B627B68FA691A6109E008233B6232
:10187C007B68FA695A6103E000233B6200E000BF19
:10188C00BB69FF2B01D87B6801E07B6804337B616B
:10189C00BB69FF2B02D87B6A9B0002E07B6A083B8A
:1018AC009B003B617B691A680F213B6901FA03F3CA
:1018BC00DB431A40396A3B6901FA03F31A437B692B
:1018CC001A603B685B6803F08053002B00F090803B
:1018DC00564B9B69554A43F001039361534B9B69EB
:1018EC0003F00103BB60BB68514A7B6A9B0802335F
:1018FC0052F82330FB607B6A03F003039B000F223A
:10190C0002FA03F3DB43FA681340FB607B68494A35
:10191C0093420DD07B68484A934207D07B68474A74
:10192C00934201D1022304E0032302E0012300E0EF
:10193C0000237A6A02F0030292009340FA68134380
:10194C00FB603B497B6A9B080233FA6841F8232011
:10195C003B685B6803F48013002B06D0384B9A6805
:10196C003749BB6913438B6006E0354B9A68BB69FA
:10197C00DB43334913408B603B685B6803F4001313
:10198C00002B06D02E4BDA682D49BB691343CB6074
:10199C0006E02B4BDA68BB69DB4329491340CB606B
:1019AC003B685B6803F40033002B06D0244B5A6869
:1019BC002349BB6913434B6006E0214B5A68BB6952
:1019CC00DB431F4913404B603B685B6803F4803377
:1019DC00002B06D01A4B1A681949BB6913430B60CC
:1019EC0006E0174B1A68BB69DB43154913400B60C3
:1019FC007B6A01337B623B681A687B6A22FA03F3C9
:101A0C00002B7FF4AFAE00BF00BF2C37BD4680BCAF
:101A1C00704700BF0000321000003110000022108F
:101A2C0000002110000012100000111000100240E4
:101A3C000000014000080140000C01400010014072
:101A4C000004014080B485B000AF78600B467B8009
:101A5C007B689A687B881340002B02D00123FB73B0
:101A6C0001E00023FB73FB7B18461437BD4680BC9A
:101A7C00704780B483B000AF78600B467B80134610
:101A8C007B707B78002B03D07A887B681A6103E02B
:101A9C007B881A047B681A6100BF0C37BD4680BC7A
:101AAC00704780B485B000AF78600B467B807B6854
:101ABC00DB68FB607A88FB6813401A04FB68D94327
:101ACC007B880B401A437B681A6100BF1437BD46F4
:101ADC0080BC704780B586B000AF78607B68002B07
:101AEC0001D101236CE27B681B6803F00103002B1E
:101AFC0000F08780924B5B6803F00C03042B0CD036
:101B0C008F4B5B6803F00C03082B12D18C4B5B687A
:101B1C0003F48033B3F5803F0BD1894B1B6803F47E
:101B2C000033002B6CD07B685B68002B68D10123E1
:101B3C0046E27B685B68B3F5803F06D1804B1B683F
:101B4C007F4A43F4803313602EE07B685B68002B84
:101B5C000CD17B4B1B687A4A23F480331360784B8F
:101B6C001B68774A23F4802313601DE07B685B6855
:101B7C00B3F5A02F0CD1724B1B68714A43F4802330
:101B8C0013606F4B1B686E4A43F4803313600BE099
:101B9C006B4B1B686A4A23F480331360684B1B68D9
:101BAC00674A23F4802313607B685B68002B13D097
:101BBC00FFF7B6FC386108E0FFF7B2FC02463B6960
:101BCC00D31A642B01D90323FAE15D4B1B6803F490
:101BDC000033002BF0D014E0FFF7A2FC386108E0D2
:101BEC00FFF79EFC02463B69D31A642B01D90323F1
:101BFC00E6E1534B1B6803F40033002BF0D100E0FB
:101C0C0000BF7B681B6803F00203002B63D04C4BB6
:101C1C005B6803F00C03002B0BD0494B5B6803F0A3
:101C2C000C03082B1CD1464B5B6803F48033002B50
:101C3C0016D1434B1B6803F00203002B05D07B68C5
:101C4C001B69012B01D00123BAE13D4B1B6823F02A
:101C5C00F8027B685B69DB00394913430B603AE09F
:101C6C007B681B69002B20D0364B01221A60FFF7D2
:101C7C0057FC386108E0FFF753FC02463B69D31A66
:101C8C00022B01D903239BE12D4B1B6803F00203AC
:101C9C00002BF0D02A4B1B6823F0F8027B685B69A1
:101CAC00DB00274913430B6015E0264B00221A601A
:101CBC00FFF736FC386108E0FFF732FC02463B695F
:101CCC00D31A022B01D903237AE11D4B1B6803F0B5
:101CDC000203002BF0D17B681B6803F00803002B78
:101CEC003AD07B689B69002B19D0174B01221A60E4
:101CFC00FFF716FC386108E0FFF712FC02463B695F
:101D0C00D31A022B01D903235AE10D4B5B6A03F062
:101D1C000203002BF0D0012000F09AFA1CE00A4BD1
:101D2C0000221A60FFF7FCFB38610FE0FFF7F8FBAD
:101D3C0002463B69D31A022B08D9032340E100BFAA
:101D4C000010024000004242800442429E4B5B6AFB
:101D5C0003F00203002BE9D17B681B6803F004033A
:101D6C00002B00F0A6800023FB75974BDB6903F07A
:101D7C008053002B0DD1944BDB69934A43F0805375
:101D8C00D361914BDB6903F08053BB60BB680123CB
:101D9C00FB758E4B1B6803F48073002B18D18B4B97
:101DAC001B688A4A43F480731360FFF7B9FB3861F0
:101DBC0008E0FFF7B5FB02463B69D31A642B01D947
:101DCC000323FDE0814B1B6803F48073002BF0D0E0
:101DDC007B68DB68012B06D17B4B1B6A7A4A43F08C
:101DEC00010313622DE07B68DB68002B0CD1764B72
:101DFC001B6A754A23F001031362734B1B6A724A08
:101E0C0023F0040313621CE07B68DB68052B0CD108
:101E1C006D4B1B6A6C4A43F0040313626A4B1B6ADA
:101E2C00694A43F0010313620BE0674B1B6A664A75
:101E3C0023F001031362644B1B6A634A23F004030F
:101E4C0013627B68DB68002B15D0FFF769FB3861E8
:101E5C000AE0FFF765FB02463B69D31A41F2883270
:101E6C00934201D90323ABE0574B1B6A03F00203E7
:101E7C00002BEED014E0FFF753FB38610AE0FFF7BC
:101E8C004FFB02463B69D31A41F28832934201D987
:101E9C00032395E04C4B1B6A03F00203002BEED19D
:101EAC00FB7D012B05D1484BDB69474A23F080535E
:101EBC00D3617B68DB69002B00F08180424B5B684F
:101ECC0003F00C03082B61D07B68DB69022B46D135
:101EDC003F4B00221A60FFF723FB386108E0FFF745
:101EEC001FFB02463B69D31A022B01D9032367E07F
:101EFC00354B1B6803F00073002BF0D17B681B6A19
:101F0C00B3F5803F08D1304B5B6823F400327B681B
:101F1C009B682D4913434B602B4B5B6823F4741265
:101F2C007B68196A7B685B6A0B43274913434B60D8
:101F3C00274B01221A60FFF7F3FA386108E0FFF72C
:101F4C00EFFA02463B69D31A022B01D9032337E07F
:101F5C001D4B1B6803F00073002BF0D02FE01C4BC3
:101F6C0000221A60FFF7DCFA386108E0FFF7D8FAB4
:101F7C0002463B69D31A022B01D9032320E0124BF2
:101F8C001B6803F00073002BF0D118E07B68DB6951
:101F9C00012B01D1012313E00B4B5B68FB60FB6849
:101FAC0003F480327B681B6A9A4206D1FB6803F407
:101FBC0070127B685B6A9A4201D0012300E0002317
:101FCC0018461837BD4680BD001002400070004016
:101FDC006000424280B584B000AF786039607B68A5
:101FEC00002B01D10123D0E06A4B1B6803F00703DF
:101FFC003A689A4210D9674B1B6823F0070265496F
:10200C003B6813430B60634B1B6803F007033A6890
:10201C009A4201D00123B8E07B681B6803F00203ED
:10202C00002B20D07B681B6803F00403002B05D029
:10203C00594B5B68584A43F4E06353607B681B68F8
:10204C0003F00803002B05D0534B5B68524A43F452
:10205C0060535360504B5B6823F0F0027B689B68C5
:10206C004D4913434B607B681B6803F00103002B45
:10207C0040D07B685B68012B07D1474B1B6803F48E
:10208C000033002B15D101237FE07B685B68022BAA
:10209C0007D1414B1B6803F00073002B09D10123BE
:1020AC0073E03D4B1B6803F00203002B01D10123AD
:1020BC006BE0394B5B6823F003027B685B68364945
:1020CC0013434B60FFF72CFAF8600AE0FFF728FA8D
:1020DC000246FB68D31A41F28832934201D903239A
:1020EC0053E02D4B5B6803F00C027B685B689B0034
:1020FC009A42EBD1274B1B6803F007033A689A42CC
:10210C0010D2244B1B6823F0070222493B6813436F
:10211C000B60204B1B6803F007033A689A4201D00E
:10212C00012332E07B681B6803F00403002B08D00A
:10213C00194B5B6823F4E0627B68DB681649134338
:10214C004B607B681B6803F00803002B09D0124B13
:10215C005B6823F460527B681B69DB000E491343F8
:10216C004B6000F021F802460B4B5B681B0903F037
:10217C000F030A49CB5C22FA03F3094A1360094B9B
:10218C001B681846FFF78AF9002318461037BD461E
:10219C0080BD00BF0020024000100240D82A000879
:1021AC00540000205800002080B487B000AF0023FA
:1021BC00FB600023BB6000237B6100237B6000235A
:1021CC003B611E4B5B68FB60FB6803F00C03042B4C
:1021DC0002D0082B03D027E0194B3B6127E0FB68AA
:1021EC009B0C03F00F03174AD35C7B60FB6803F472
:1021FC008033002B10D0114B5B685B0C03F0010398
:10220C00114AD35CBB607B680D4A02FB03F2BB68CE
:10221C00B2FBF3F37B6104E07B680C4A02FB03F333
:10222C007B617B693B6102E0054B3B6100BF3B6915
:10223C0018461C37BD4680BC704700BF00100240DA
:10224C0000127A00E82A0008F82A000800093D006C
:10225C0080B485B000AF78600A4B1B680A4AA2FBB9
:10226C0003235B0A7A6802FB03F3FB6000BFFB6885
:10227C005A1EFA60002BF9D100BF00BF1437BD46BF
:10228C0080BC704754000020D34D621080B582B0E2
:10229C0000AF78607B68002B01D1012341E07B68A3
:1022AC0093F83D30DBB2002B06D17B68002283F81B
:1022BC003C207868FEF71EFE7B68022283F83D20E6
:1022CC007B681A687B6804331946104600F06EFA76
:1022DC007B68012283F846207B68012283F83E202C
:1022EC007B68012283F83F207B68012283F8402021
:1022FC007B68012283F841207B68012283F842200D
:10230C007B68012283F843207B68012283F84420F8
:10231C007B68012283F845207B68012283F83D20ED
:10232C00002318460837BD4680BD000080B485B038
:10233C0000AF78607B6893F83D30DBB2012B01D0A5
:10234C00012335E07B68022283F83D207B681B6803
:10235C00DA687B681B6842F00102DA607B681B68F4
:10236C00164A934209D07B681B68B3F1804F04D0A6
:10237C007B681B68124A934211D17B681B689B686F
:10238C0003F00703FB60FB68062B10D07B681B680F
:10239C001A687B681B6842F001021A6007E07B68D0
:1023AC001B681A687B681B6842F001021A600023E4
:1023BC0018461437BD4680BC704700BF002C014046
:1023CC000004004080B582B000AF78607B681B6869
:1023DC001B6903F00203022B22D17B681B68DB68AC
:1023EC0003F00203022B1BD17B681B686FF0020207
:1023FC001A617B6801221A777B681B689B6903F062
:10240C000303002B03D0786800F0B4F905E078687A
:10241C0000F0A7F9786800F0B6F97B6800221A770B
:10242C007B681B681B6903F00403042B22D17B68B7
:10243C001B68DB6803F00403042B1BD17B681B684F
:10244C006FF004021A617B6802221A777B681B68A2
:10245C009B6903F44073002B03D0786800F08AF971
:10246C0005E0786800F07DF9786800F08CF97B68FD
:10247C0000221A777B681B681B6903F00803082B82
:10248C0022D17B681B68DB6803F00803082B1BD187
:10249C007B681B686FF008021A617B6804221A774C
:1024AC007B681B68DB6903F00303002B03D078689F
:1024BC0000F060F905E0786800F053F9786800F0F6
:1024CC0062F97B6800221A777B681B681B6903F032
:1024DC001003102B22D17B681B68DB6803F0100300
:1024EC00102B1BD17B681B686FF010021A617B6884
:1024FC0008221A777B681B68DB6903F44073002B96
:10250C0003D0786800F036F905E0786800F029F916
:10251C00786800F038F97B6800221A777B681B68B2
:10252C001B6903F00103012B0ED17B681B68DB6870
:10253C0003F00103012B07D17B681B686FF00102CC
:10254C001A617868FEF7DAFB7B681B681B6903F07D
:10255C008003802B0ED17B681B68DB6803F0800343
:10256C00802B07D17B681B686FF080021A6178683A
:10257C0000F06BFA7B681B681B6903F04003402B6F
:10258C000ED17B681B68DB6803F04003402B07D13E
:10259C007B681B686FF040021A61786800F0FCF8E9
:1025AC007B681B681B6903F02003202B0ED17B6812
:1025BC001B68DB6803F02003202B07D17B681B68AA
:1025CC006FF020021A61786800F036FA00BF083705
:1025DC00BD4680BD80B584B000AF78603960002303
:1025EC00FB737B6893F83C30012B01D10223B4E0E0
:1025FC007B68012283F83C207B68022283F83D2013
:10260C007B681B689B68BB60BB6823F07703BB606F
:10261C00BB6823F47F43BB607B681B68BA689A6015
:10262C003B681B68B3F5005F3ED0B3F5005F00F26A
:10263C008780B3F5805F00F08680B3F5805F7FD82C
:10264C00702B1AD0702B7BD8602B50D0602B77D886
:10265C00502B3CD0502B73D8402B58D0402B6FD8DC
:10266C00302B64D0302B6BD8202B60D0202B67D82C
:10267C00002B5CD0102B5AD062E07B6818683B684A
:10268C0099683B685A683B68DB6800F05EF97B68C8
:10269C001B689B68BB60BB6843F07703BB607B68BF
:1026AC001B68BA689A604FE07B6818683B68996849
:1026BC003B685A683B68DB6800F047F97B681B682D
:1026CC009A687B681B6842F480429A603CE07B68A5
:1026DC0018683B6859683B68DB681A4600F0BEF81E
:1026EC007B681B685021184600F015F92CE07B68BC
:1026FC0018683B6859683B68DB681A4600F0DCF8E0
:10270C007B681B686021184600F005F91CE07B68AB
:10271C0018683B6859683B68DB681A4600F09EF8FD
:10272C007B681B684021184600F0F5F80CE07B68CC
:10273C001A683B681B681946104600F0ECF803E079
:10274C000123FB7300E000BF7B68012283F83D206E
:10275C007B68002283F83C20FB7B18461037BD4673
:10276C0080BD80B483B000AF786000BF0C37BD462D
:10277C0080BC704780B483B000AF786000BF0C376A
:10278C00BD4680BC704780B483B000AF786000BF9A
:10279C000C37BD4680BC704780B483B000AF786006
:1027AC0000BF0C37BD4680BC7047000080B485B0BC
:1027BC0000AF786039607B681B68FB607B68254ADA
:1027CC00934207D07B68B3F1804F03D07B68224AD9
:1027DC00934208D1FB6823F07003FB603B685B6895
:1027EC00FA681343FB607B681A4A934207D07B68F4
:1027FC00B3F1804F03D07B68174A934208D1FB6832
:10280C0023F44073FB603B68DB68FA681343FB609E
:10281C00FB6823F080023B685B691343FB607B68B9
:10282C00FA681A603B689A687B68DA623B681A68D7
:10283C007B689A627B68074A934203D13B681A69AA
:10284C007B681A637B6801225A6100BF1437BD464E
:10285C0080BC7047002C01400004004080B487B05D
:10286C0000AFF860B9607A60FB681B6A7B61FB683B
:10287C001B6A23F00102FB681A62FB689B693B61CF
:10288C003B6923F0F0033B617B681B013A691343FE
:10289C003B617B6923F00A037B617A69BB68134354
:1028AC007B61FB683A699A61FB687A691A6200BFBE
:1028BC001C37BD4680BC704780B487B000AFF86051
:1028CC00B9607A60FB681B6A7B61FB681B6A23F04A
:1028DC001002FB681A62FB689B693B613B6923F43D
:1028EC0070433B617B681B033A6913433B617B6913
:1028FC0023F0A0037B61BB681B017A6913437B61E6
:10290C00FB683A699A61FB687A691A6200BF1C37E6
:10291C00BD4680BC704780B485B000AF786039602C
:10292C007B689B68FB60FB6823F07003FB603A6874
:10293C00FB68134343F00703FB607B68FA689A60FB
:10294C0000BF1437BD4680BC704780B487B000AF61
:10295C00F860B9607A603B60FB689B687B617B695F
:10296C0023F47F437B613B681A027B681A43BB6884
:10297C0013437A6913437B61FB687A699A6000BFE1
:10298C001C37BD4680BC704780B485B000AF786002
:10299C0039607B6893F83C30012B01D1022341E074
:1029AC007B68012283F83C207B68022283F83D205F
:1029BC007B681B685B68FB607B681B689B68BB6003
:1029CC00FB6823F07003FB603B681B68FA681343D9
:1029DC00FB607B681B68FA685A607B681B68144A4A
:1029EC00934209D07B681B68B3F1804F04D07B689D
:1029FC001B68104A93420CD1BB6823F08003BB6068
:102A0C003B685B68BA681343BB607B681B68BA6839
:102A1C009A607B68012283F83D207B68002283F852
:102A2C003C20002318461437BD4680BC704700BFBD
:102A3C00002C01400004004080B483B000AF7860EB
:102A4C0000BF0C37BD4680BC704780B483B000AF6C
:102A5C00786000BF0C37BD4680BC704770B500264F
:102A6C000C4D0D4C641BA410A64209D100F022F8A9
:102A7C0000260A4D0A4C641BA410A64205D170BD59
:102A8C0055F8043B98470136EEE755F8043B984758
:102A9C000136F2E7FC2A0008FC2A0008FC2A000890
:102AAC00002B000803460244934200D1704703F800
:102ABC00011BF9E7F8B500BFF8BC08BC9E4670478F
:0C2ACC00F8B500BFF8BC08BC9E4670477F
:102AD80000000000000000000102030406070809C6
:102AE80002030405060708090A0B0C0D0E0F101047
:042AF80001020000D7
:042AFC00310100089C
:042B00000D010008BB
:102B04001400000014000000140000000100000084
:102B140001000000010000000100000001000000AD
:102B2400010000000100000001000000010000009D
:102B34000100000001000000010000000A00000084
:102B44000C00000088130000D0070000B80B000040
:102B5400E80300000024F40010000000010000005D
:0400000508001431AA
:00000001FF
